S025000072656D6F74655F636F6E74726F6C6C65725F43414D455F415474696E792E73726563A3
S113000009C021C020C01FC01EC01DC01CC01BC011
S11300101AC019C011241FBECFE9CDBF10E0A0E65D
S1130020B0E0E8E7F1E002C005900D92A436B10714
S1130030D9F720E0A4E6B0E001C01D92A237B207D0
S1130040E1F72DD097C0DCCF18BA86E087BB0895BE
S1130050209160003091610082239323089588B336
S11300608D7F88BB80E88A95F1F788B3826088BB6E
S11300708FEB90E00197F1F700C00000089588B37A
S11300808D7F88BB8FEB90E00197F1F700C00000F3
S113009088B3826088BB90E89A95F1F70895D4DF1D
S11300A0C0E0D0E015C00091620010916300C80167
S11300B0CFDFFE01EA59FF4F8083C80199230CF476
S11300C0019695958795909363008093620021969D
S11300D0CC30D10544F3B09949C088B3846088BB5F
S11300E088B3826088BB8FE295E70197F1F700C07F
S11300F0000088B38D7F88BB80E89DE00197F1F70D
S113010026C088B3826088BB90E89A95F1F717C03F
S1130110E0916400F0916500EA59FF4F808180FD11
S113012002C09DDF01C0ABDF809164009091650047
S1130130019690936500809364000C9714F4B09B2F
S1130140E7CF80916400909165000C9714F4B09B04
S1130150D8CF109265001092640088B38D7F88BB5D
S11301608BED95E00197F1F700C0000088B38B7F19
S10B017088BBB1CFF894FFCF66
S1070178010022025A
S9030000FC
