:1000000009C021C020C01FC01EC01DC01CC01BC015
:100010001AC019C011241FBECFE9CDBF10E0A0E661
:10002000B0E0ECE9F1E002C005900D92A436B10712
:10003000D9F720E0A4E6B0E001C01D92A237B207D4
:10004000E1F73DD0A9C0DCCF18BA86E087BB0895A0
:1000500088B1806888B9089520916000309161006E
:1000600082239323089588B38D7F88BB8AE68A957F
:10007000F1F700C088B3826088BB85ED8A95F1F7FF
:100080000000089588B38D7F88BB85ED8A95F1F7D0
:10009000000088B3826088BB8AE68A95F1F700C0C9
:1000A000089598B384E0892788BB2FE38DE093E01F
:1000B000215080409040E1F700C000000895C4DF67
:1000C000C7DFC0E0D0E015C000916200109163006E
:1000D000C801C2DFFE01EA59FF4F8083C80199239E
:1000E0000CF4019695958795909363008093620038
:1000F0002196CC30D10544F3D4DFB099FDCF88B33D
:10010000846088BB88B3826088BB87EA91E60197E8
:10011000F1F700C0000088B38D7F88BB8FE39BE0C0
:100120000197F1F700C0000027C088B3826088BB48
:100130009AE69A95F1F700C017C0E0916400F0913B
:100140006500EA59FF4F808180FD02C08CDF01C04D
:1001500099DF80916400909165000196909365000D
:10016000809364000C9714F4B09BE7CF80916400F7
:10017000909165000C9714F4B09BD7CF1092650056
:100180001092640088B38D7F88BB81EE94E0019764
:0C019000F1F700C00000B0CFF894FFCFE2
:04019C00010022023A
:00000001FF
