:100000000EC026C025C024C023C022C021C020C0ED
:100010001FC01EC01DC01CC01BC01AC019C01124A7
:100020001FBECFEDCDBF10E0A0E6B0E0E0E0F2E013
:1000300002C005900D92A436B107D9F720E0A4E6DE
:10004000B0E001C01D92A037B207E1F78CD0D6C056
:10005000D7CF18BA86E087BB089588B1806888B981
:1000600008952091600030916100822393230895C8
:1000700088B38D7F88BB8AE68A95F1F700C088B384
:10008000826088BB8AE68A95F1F700C08AE68A9585
:10009000F1F700C0089588B38D7F88BB8AE68A9502
:1000A000F1F700C08AE68A95F1F700C088B3826054
:1000B00088BB8AE68A95F1F700C0089580916400B4
:1000C000811102C0D5DF01C0E6DF8091650081119A
:1000D00002C0CEDF01C0DFDF80916600811102C067
:1000E000C7DF01C0D8DF80916700811102C0C0DF87
:1000F00001C0D1DF80916800811102C0B9DF01C069
:10010000CADF80916900811102C0B2DF01C0C3DF84
:1001100080916A00811102C0ABDF01C0BCDF809119
:100120006B00811102C0A4DF01C0B5DF80916C00BB
:10013000811102C09DDF01C0AEDF80916D00811191
:1001400002C096DF01C0A7DF80916E00811102C05E
:100150008FDF01C0A0DF80916F00811102C088DFB6
:10016000089599DF089575DF78DFCBE0D0E015C002
:100170000091620010916300C80173DFFE01EC5929
:10018000FF4F8083C80199230CF4019695958795BC
:1001900090936300809362002197DD234CF7B09920
:1001A00029C088B3846088BB88B3826088BB81EE35
:1001B00094E00197F1F700C0000088B38D7F88BB01
:1001C0008FE39BE00197F1F700C0000088B38260E5
:1001D00088BB9AE69A95F1F700C088B38D7F88BBFB
:1001E0006DDF88B38D7F88BB83EF91E00197F1F7D6
:1001F00000C0000088B38B7F88BBD1CFF894FFCFBD
:0402000001002202D5
:00000001FF
